{
  "contractName": "MLContract",
  "abi": [
    {
      "anonymous": false,
      "inputs": [
        {
          "indexed": true,
          "internalType": "uint256",
          "name": "_modelId",
          "type": "uint256"
        }
      ],
      "name": "registerModel",
      "type": "event"
    },
    {
      "inputs": [],
      "name": "modelCount",
      "outputs": [
        {
          "internalType": "uint256",
          "name": "",
          "type": "uint256"
        }
      ],
      "stateMutability": "view",
      "type": "function",
      "constant": true
    },
    {
      "inputs": [
        {
          "internalType": "uint256",
          "name": "",
          "type": "uint256"
        }
      ],
      "name": "modelList",
      "outputs": [
        {
          "internalType": "string",
          "name": "model_name",
          "type": "string"
        },
        {
          "internalType": "string",
          "name": "model_weight",
          "type": "string"
        },
        {
          "internalType": "string",
          "name": "model_intercept",
          "type": "string"
        },
        {
          "internalType": "string",
          "name": "model_classes",
          "type": "string"
        }
      ],
      "stateMutability": "view",
      "type": "function",
      "constant": true
    },
    {
      "inputs": [
        {
          "internalType": "string",
          "name": "mname",
          "type": "string"
        },
        {
          "internalType": "string",
          "name": "mweight",
          "type": "string"
        },
        {
          "internalType": "string",
          "name": "mi",
          "type": "string"
        },
        {
          "internalType": "string",
          "name": "mc",
          "type": "string"
        }
      ],
      "name": "saveBestModel",
      "outputs": [],
      "stateMutability": "nonpayable",
      "type": "function"
    },
    {
      "inputs": [
        {
          "internalType": "uint256",
          "name": "i",
          "type": "uint256"
        },
        {
          "internalType": "string",
          "name": "weight",
          "type": "string"
        }
      ],
      "name": "updateWeight",
      "outputs": [],
      "stateMutability": "nonpayable",
      "type": "function"
    },
    {
      "inputs": [
        {
          "internalType": "uint256",
          "name": "i",
          "type": "uint256"
        },
        {
          "internalType": "string",
          "name": "mi",
          "type": "string"
        }
      ],
      "name": "updateHashcode",
      "outputs": [],
      "stateMutability": "nonpayable",
      "type": "function"
    },
    {
      "inputs": [
        {
          "internalType": "uint256",
          "name": "i",
          "type": "uint256"
        },
        {
          "internalType": "string",
          "name": "mc",
          "type": "string"
        }
      ],
      "name": "updateDate",
      "outputs": [],
      "stateMutability": "nonpayable",
      "type": "function"
    },
    {
      "inputs": [],
      "name": "getModelCount",
      "outputs": [
        {
          "internalType": "uint256",
          "name": "",
          "type": "uint256"
        }
      ],
      "stateMutability": "view",
      "type": "function",
      "constant": true
    },
    {
      "inputs": [
        {
          "internalType": "uint256",
          "name": "i",
          "type": "uint256"
        }
      ],
      "name": "getModelName",
      "outputs": [
        {
          "internalType": "string",
          "name": "",
          "type": "string"
        }
      ],
      "stateMutability": "view",
      "type": "function",
      "constant": true
    },
    {
      "inputs": [
        {
          "internalType": "uint256",
          "name": "i",
          "type": "uint256"
        }
      ],
      "name": "getWeight",
      "outputs": [
        {
          "internalType": "string",
          "name": "",
          "type": "string"
        }
      ],
      "stateMutability": "view",
      "type": "function",
      "constant": true
    },
    {
      "inputs": [
        {
          "internalType": "uint256",
          "name": "i",
          "type": "uint256"
        }
      ],
      "name": "getIntercept",
      "outputs": [
        {
          "internalType": "string",
          "name": "",
          "type": "string"
        }
      ],
      "stateMutability": "view",
      "type": "function",
      "constant": true
    },
    {
      "inputs": [
        {
          "internalType": "uint256",
          "name": "i",
          "type": "uint256"
        }
      ],
      "name": "getClasses",
      "outputs": [
        {
          "internalType": "string",
          "name": "",
          "type": "string"
        }
      ],
      "stateMutability": "view",
      "type": "function",
      "constant": true
    }
  ],
  "bytecode": "0x60806040526000805534801561001457600080fd5b50611318806100246000396000f3fe608060405234801561001057600080fd5b50600436106100c6576000357c01000000000000000000000000000000000000000000000000000000009004806381dd51001161008e57806381dd5100146101515780639a6ee03b14610164578063a03f1c7114610177578063b2af23531461018a578063c6a645fe1461019d578063d851fdfd146101a657600080fd5b8063132f464b146100cb57806316191904146100f45780634989dbb0146101095780636f8daad71461011b5780637a65b7ae1461013e575b600080fd5b6100de6100d9366004610fc4565b6101b9565b6040516100eb919061102a565b60405180910390f35b610107610102366004611100565b61042f565b005b6000545b6040519081526020016100eb565b61012e610129366004610fc4565b610459565b6040516100eb9493929190611147565b61010761014c366004611100565b6106a1565b6100de61015f366004610fc4565b6106c6565b6100de610172366004610fc4565b61093c565b610107610185366004611100565b610bb0565b61010761019836600461119f565b610bd5565b61010d60005481565b6100de6101b4366004610fc4565b610cb5565b60606000600160008481526020019081526020016000206040518060800160405290816000820180546101eb9061124c565b80601f01602080910402602001604051908101604052809291908181526020018280546102179061124c565b80156102645780601f1061023957610100808354040283529160200191610264565b820191906000526020600020905b81548152906001019060200180831161024757829003601f168201915b5050505050815260200160018201805461027d9061124c565b80601f01602080910402602001604051908101604052809291908181526020018280546102a99061124c565b80156102f65780601f106102cb576101008083540402835291602001916102f6565b820191906000526020600020905b8154815290600101906020018083116102d957829003601f168201915b5050505050815260200160028201805461030f9061124c565b80601f016020809104026020016040519081016040528092919081815260200182805461033b9061124c565b80156103885780601f1061035d57610100808354040283529160200191610388565b820191906000526020600020905b81548152906001019060200180831161036b57829003601f168201915b505050505081526020016003820180546103a19061124c565b80601f01602080910402602001604051908101604052809291908181526020018280546103cd9061124c565b801561041a5780601f106103ef5761010080835404028352916020019161041a565b820191906000526020600020905b8154815290600101906020018083116103fd57829003601f168201915b50505091909252505050604001519392505050565b6000828152600160209081526040909120825161045492600390920191840190610f2b565b505050565b6001602052600090815260409020805481906104749061124c565b80601f01602080910402602001604051908101604052809291908181526020018280546104a09061124c565b80156104ed5780601f106104c2576101008083540402835291602001916104ed565b820191906000526020600020905b8154815290600101906020018083116104d057829003601f168201915b5050505050908060010180546105029061124c565b80601f016020809104026020016040519081016040528092919081815260200182805461052e9061124c565b801561057b5780601f106105505761010080835404028352916020019161057b565b820191906000526020600020905b81548152906001019060200180831161055e57829003601f168201915b5050505050908060020180546105909061124c565b80601f01602080910402602001604051908101604052809291908181526020018280546105bc9061124c565b80156106095780601f106105de57610100808354040283529160200191610609565b820191906000526020600020905b8154815290600101906020018083116105ec57829003601f168201915b50505050509080600301805461061e9061124c565b80601f016020809104026020016040519081016040528092919081815260200182805461064a9061124c565b80156106975780601f1061066c57610100808354040283529160200191610697565b820191906000526020600020905b81548152906001019060200180831161067a57829003601f168201915b5050505050905084565b6000828152600160209081526040909120825161045492600290920191840190610f2b565b60606000600160008481526020019081526020016000206040518060800160405290816000820180546106f89061124c565b80601f01602080910402602001604051908101604052809291908181526020018280546107249061124c565b80156107715780601f1061074657610100808354040283529160200191610771565b820191906000526020600020905b81548152906001019060200180831161075457829003601f168201915b5050505050815260200160018201805461078a9061124c565b80601f01602080910402602001604051908101604052809291908181526020018280546107b69061124c565b80156108035780601f106107d857610100808354040283529160200191610803565b820191906000526020600020905b8154815290600101906020018083116107e657829003601f168201915b5050505050815260200160028201805461081c9061124c565b80601f01602080910402602001604051908101604052809291908181526020018280546108489061124c565b80156108955780601f1061086a57610100808354040283529160200191610895565b820191906000526020600020905b81548152906001019060200180831161087857829003601f168201915b505050505081526020016003820180546108ae9061124c565b80601f01602080910402602001604051908101604052809291908181526020018280546108da9061124c565b80156109275780601f106108fc57610100808354040283529160200191610927565b820191906000526020600020905b81548152906001019060200180831161090a57829003601f168201915b50505091909252505050606001519392505050565b606060006001600084815260200190815260200160002060405180608001604052908160008201805461096e9061124c565b80601f016020809104026020016040519081016040528092919081815260200182805461099a9061124c565b80156109e75780601f106109bc576101008083540402835291602001916109e7565b820191906000526020600020905b8154815290600101906020018083116109ca57829003601f168201915b50505050508152602001600182018054610a009061124c565b80601f0160208091040260200160405190810160405280929190818152602001828054610a2c9061124c565b8015610a795780601f10610a4e57610100808354040283529160200191610a79565b820191906000526020600020905b815481529060010190602001808311610a5c57829003601f168201915b50505050508152602001600282018054610a929061124c565b80601f0160208091040260200160405190810160405280929190818152602001828054610abe9061124c565b8015610b0b5780601f10610ae057610100808354040283529160200191610b0b565b820191906000526020600020905b815481529060010190602001808311610aee57829003601f168201915b50505050508152602001600382018054610b249061124c565b80601f0160208091040260200160405190810160405280929190818152602001828054610b509061124c565b8015610b9d5780601f10610b7257610100808354040283529160200191610b9d565b820191906000526020600020905b815481529060010190602001808311610b8057829003601f168201915b5050509190925250509051949350505050565b6000828152600160208181526040909220835161045493919092019190840190610f2b565b6040805160808101825285815260208082018690528183018590526060820184905260008054815260018252929092208151805192939192610c1a9284920190610f2b565b506020828101518051610c339260018501920190610f2b565b5060408201518051610c4f916002840191602090910190610f2b565b5060608201518051610c6b916003840191602090910190610f2b565b5050600080546040519092507ff600002ff5be478535a8ef5a8fba8e9002ada86a82795658f1c636149468771e9190a2600080549080610caa836112a0565b919050555050505050565b6060600060016000848152602001908152602001600020604051806080016040529081600082018054610ce79061124c565b80601f0160208091040260200160405190810160405280929190818152602001828054610d139061124c565b8015610d605780601f10610d3557610100808354040283529160200191610d60565b820191906000526020600020905b815481529060010190602001808311610d4357829003601f168201915b50505050508152602001600182018054610d799061124c565b80601f0160208091040260200160405190810160405280929190818152602001828054610da59061124c565b8015610df25780601f10610dc757610100808354040283529160200191610df2565b820191906000526020600020905b815481529060010190602001808311610dd557829003601f168201915b50505050508152602001600282018054610e0b9061124c565b80601f0160208091040260200160405190810160405280929190818152602001828054610e379061124c565b8015610e845780601f10610e5957610100808354040283529160200191610e84565b820191906000526020600020905b815481529060010190602001808311610e6757829003601f168201915b50505050508152602001600382018054610e9d9061124c565b80601f0160208091040260200160405190810160405280929190818152602001828054610ec99061124c565b8015610f165780601f10610eeb57610100808354040283529160200191610f16565b820191906000526020600020905b815481529060010190602001808311610ef957829003601f168201915b50505091909252505050602001519392505050565b828054610f379061124c565b90600052602060002090601f016020900481019282610f595760008555610f9f565b82601f10610f7257805160ff1916838001178555610f9f565b82800160010185558215610f9f579182015b82811115610f9f578251825591602001919060010190610f84565b50610fab929150610faf565b5090565b5b80821115610fab5760008155600101610fb0565b600060208284031215610fd657600080fd5b5035919050565b6000815180845260005b8181101561100357602081850181015186830182015201610fe7565b81811115611015576000602083870101525b50601f01601f19169290920160200192915050565b60208152600061103d6020830184610fdd565b9392505050565b7f4e487b7100000000000000000000000000000000000000000000000000000000600052604160045260246000fd5b600082601f83011261108457600080fd5b813567ffffffffffffffff8082111561109f5761109f611044565b604051601f8301601f19908116603f011681019082821181831017156110c7576110c7611044565b816040528381528660208588010111156110e057600080fd5b836020870160208301376000602085830101528094505050505092915050565b6000806040838503121561111357600080fd5b82359150602083013567ffffffffffffffff81111561113157600080fd5b61113d85828601611073565b9150509250929050565b60808152600061115a6080830187610fdd565b828103602084015261116c8187610fdd565b905082810360408401526111808186610fdd565b905082810360608401526111948185610fdd565b979650505050505050565b600080600080608085870312156111b557600080fd5b843567ffffffffffffffff808211156111cd57600080fd5b6111d988838901611073565b955060208701359150808211156111ef57600080fd5b6111fb88838901611073565b9450604087013591508082111561121157600080fd5b61121d88838901611073565b9350606087013591508082111561123357600080fd5b5061124087828801611073565b91505092959194509250565b60028104600182168061126057607f821691505b6020821081141561129a577f4e487b7100000000000000000000000000000000000000000000000000000000600052602260045260246000fd5b50919050565b60006000198214156112db577f4e487b7100000000000000000000000000000000000000000000000000000000600052601160045260246000fd5b506001019056fea26469706673582212205faff2df4b10ada2911cabb5a648210cca571ff863e549fb5f98a4e9177c7bb664736f6c634300080b0033",
  "immutableReferences": {},
  "source": "pragma solidity >= 0.8.11 <= 0.8.11;\r\npragma experimental ABIEncoderV2;\r\n//Federated Learning solidity code\r\ncontract MLContract {\r\n\r\n    uint public modelCount = 0; \r\n    mapping(uint => model) public modelList; \r\n     struct model\r\n     {\r\n       string model_name;\r\n       string model_weight;\r\n       string model_intercept;\r\n       string model_classes;\r\n     }\r\n \r\n   // events to registerModel\r\n   event registerModel(uint indexed _modelId);\r\n\r\n  \r\n   //function  to submit model updates\r\n   function saveBestModel(string memory mname, string memory mweight, string memory mi, string memory mc) public {\r\n      modelList[modelCount] = model(mname, mweight, mi, mc);\r\n      emit registerModel(modelCount);\r\n      modelCount++;\r\n    }\r\n\r\n    function updateWeight(uint i, string memory weight) public {\r\n       modelList[i].model_weight= weight;\r\n    }\r\n\r\n    function updateHashcode(uint i, string memory mi) public {\r\n       modelList[i].model_intercept = mi;\r\n    }\r\n\r\n    function updateDate(uint i, string memory mc) public { \r\n      modelList[i].model_classes = mc;\r\n   }\r\n\r\n     //get number of local client model count\r\n    function getModelCount()  public view returns (uint) {\r\n          return  modelCount;\r\n    }\r\n\r\n    function getModelName(uint i) public view returns (string memory) {\r\n        model memory aggregate = modelList[i];\r\n\treturn aggregate.model_name;\r\n    }\r\n\r\n    function getWeight(uint i) public view returns (string memory) {\r\n        model memory aggregate = modelList[i];\r\n\treturn aggregate.model_weight;\r\n    }\r\n\r\n    function getIntercept(uint i) public view returns (string memory) {\r\n        model memory aggregate = modelList[i];\r\n\treturn aggregate.model_intercept;\r\n    }\r\n\r\n   function getClasses(uint i) public view returns (string memory) {\r\n        model memory aggregate = modelList[i];\r\n\treturn aggregate.model_classes;\r\n    }\t   \r\n    \r\n}",
  "sourcePath": "C:\\Users\\Admin\\Desktop\\Blockchain\\hello-eth\\node_modules\\.bin\\contracts\\MLContract.sol",
  "compiler": {
    "name": "solc",
    "version": "0.8.11+commit.d7f03943.Emscripten.clang"
  },
  "schemaVersion": "3.4.4",
  "updatedAt": "2025-02-12T11:15:15.343Z",
  "networkType": "ethereum",
  "devdoc": {
    "kind": "dev",
    "methods": {},
    "version": 1
  },
  "userdoc": {
    "kind": "user",
    "methods": {},
    "version": 1
  }
}